:1000FA00E4F596F5951202151200031200C9E4FD03
:10010A00FF120194E4F509C3E50994807480948090
:0D011A0050097FFF120174050980EC80FE82
:0601B200D2917F017E00E6
:0A01B800EF1FAC0670011E4C600C36
:0C01C20000750E0B150EE50E60EC80F8C9
:0101CE00220E
:06021500E4F592F59122D0
:0D01FC00D2901201B2C2901201B4C2912241
:0F01DF00C2907F057E001201B81201B2D29022A9
:02008F00AD07BB
:10009100E4FBEBC3940874809480502B7E00748041
:1000A100A803088006CEA2E713CE13D8F8FFEDF51A
:1000B10082EF55826003D38001C392901201B41282
:0700C10001B2C2910B80CBDC
:0100C8002215
:10012700E4FDD290FBEBC3940874809480501B12BB
:1001370001B230900DA8037480088002C313D8FC65
:0C0147004205C2911201B40B80DBAF0531
:010153002289
:0E01EE00EF24FF92901201B41201B2C29122CE
:0F01CF00D2901201B41201B2A290E433FFC29198
:0101DE0022FE
:100154008F0D1201FC7F7812008F1201CFE4FF1281
:10016400008F1201CFAF0D12008F1201CF0201DFF9
:100174008F0C1201FC7F7812008F1201CF7F401286
:10018400008F1201CFAF0C12008F1201CF0201DFDA
:100003007FAE1201547F201201547F101201547FDE
:10001300B01201547FC8120154E4FF1201547F103F
:100023001201547F401201547F811201547FDF1269
:1000330001547FA11201547FA61201547FA812011B
:10004300547F3F1201547FA41201547FD3120154F1
:10005300E4FF1201547FD51201547FF01201547F43
:10006300D91201547F221201547FDA1201547F12F4
:100073001201547FDB1201547F201201547F8D1231
:0C00830001547F141201547FAF0201549D
:100194008F0CED44B0FF120154E50C54F0C4540F1D
:0E01A4004410FF120154E50C540FFF020154E9
:1000C900E4F50AC3E50A9408748094805022AD0AC5
:1000D900E4FF120194E4F50BC3E50B94807480945A
:1000E900805009E4FF120174050B80EC050A80D3E6
:0100F90022E4
:03000000020209F0
:0C020900787FE4F6D8FD75810E0200FA43
:00000001FF
